{
  "_format": "hh-sol-artifact-1",
  "contractName": "MEMEToken",
  "sourceName": "contracts/MEMEToken.sol",
  "abi": [
    {
      "inputs": [
        {
          "internalType": "address",
          "name": "initialOwner",
          "type": "address"
        }
      ],
      "stateMutability": "nonpayable",
      "type": "constructor"
    },
    {
      "inputs": [
        {
          "internalType": "address",
          "name": "spender",
          "type": "address"
        },
        {
          "internalType": "uint256",
          "name": "allowance",
          "type": "uint256"
        },
        {
          "internalType": "uint256",
          "name": "needed",
          "type": "uint256"
        }
      ],
      "name": "ERC20InsufficientAllowance",
      "type": "error"
    },
    {
      "inputs": [
        {
          "internalType": "address",
          "name": "sender",
          "type": "address"
        },
        {
          "internalType": "uint256",
          "name": "balance",
          "type": "uint256"
        },
        {
          "internalType": "uint256",
          "name": "needed",
          "type": "uint256"
        }
      ],
      "name": "ERC20InsufficientBalance",
      "type": "error"
    },
    {
      "inputs": [
        {
          "internalType": "address",
          "name": "approver",
          "type": "address"
        }
      ],
      "name": "ERC20InvalidApprover",
      "type": "error"
    },
    {
      "inputs": [
        {
          "internalType": "address",
          "name": "receiver",
          "type": "address"
        }
      ],
      "name": "ERC20InvalidReceiver",
      "type": "error"
    },
    {
      "inputs": [
        {
          "internalType": "address",
          "name": "sender",
          "type": "address"
        }
      ],
      "name": "ERC20InvalidSender",
      "type": "error"
    },
    {
      "inputs": [
        {
          "internalType": "address",
          "name": "spender",
          "type": "address"
        }
      ],
      "name": "ERC20InvalidSpender",
      "type": "error"
    },
    {
      "inputs": [
        {
          "internalType": "address",
          "name": "owner",
          "type": "address"
        }
      ],
      "name": "OwnableInvalidOwner",
      "type": "error"
    },
    {
      "inputs": [
        {
          "internalType": "address",
          "name": "account",
          "type": "address"
        }
      ],
      "name": "OwnableUnauthorizedAccount",
      "type": "error"
    },
    {
      "inputs": [],
      "name": "ReentrancyGuardReentrantCall",
      "type": "error"
    },
    {
      "anonymous": false,
      "inputs": [
        {
          "indexed": true,
          "internalType": "address",
          "name": "owner",
          "type": "address"
        },
        {
          "indexed": true,
          "internalType": "address",
          "name": "spender",
          "type": "address"
        },
        {
          "indexed": false,
          "internalType": "uint256",
          "name": "value",
          "type": "uint256"
        }
      ],
      "name": "Approval",
      "type": "event"
    },
    {
      "anonymous": false,
      "inputs": [
        {
          "indexed": true,
          "internalType": "uint256",
          "name": "memeId",
          "type": "uint256"
        },
        {
          "indexed": true,
          "internalType": "address",
          "name": "commenter",
          "type": "address"
        }
      ],
      "name": "MemeCommented",
      "type": "event"
    },
    {
      "anonymous": false,
      "inputs": [
        {
          "indexed": true,
          "internalType": "uint256",
          "name": "memeId",
          "type": "uint256"
        },
        {
          "indexed": true,
          "internalType": "address",
          "name": "creator",
          "type": "address"
        },
        {
          "indexed": false,
          "internalType": "string",
          "name": "ipfsHash",
          "type": "string"
        }
      ],
      "name": "MemeCreated",
      "type": "event"
    },
    {
      "anonymous": false,
      "inputs": [
        {
          "indexed": true,
          "internalType": "uint256",
          "name": "memeId",
          "type": "uint256"
        },
        {
          "indexed": true,
          "internalType": "address",
          "name": "liker",
          "type": "address"
        }
      ],
      "name": "MemeLiked",
      "type": "event"
    },
    {
      "anonymous": false,
      "inputs": [
        {
          "indexed": true,
          "internalType": "uint256",
          "name": "memeId",
          "type": "uint256"
        },
        {
          "indexed": true,
          "internalType": "address",
          "name": "sharer",
          "type": "address"
        }
      ],
      "name": "MemeShared",
      "type": "event"
    },
    {
      "anonymous": false,
      "inputs": [
        {
          "indexed": true,
          "internalType": "address",
          "name": "previousOwner",
          "type": "address"
        },
        {
          "indexed": true,
          "internalType": "address",
          "name": "newOwner",
          "type": "address"
        }
      ],
      "name": "OwnershipTransferred",
      "type": "event"
    },
    {
      "anonymous": false,
      "inputs": [
        {
          "indexed": true,
          "internalType": "address",
          "name": "from",
          "type": "address"
        },
        {
          "indexed": true,
          "internalType": "address",
          "name": "to",
          "type": "address"
        },
        {
          "indexed": false,
          "internalType": "uint256",
          "name": "value",
          "type": "uint256"
        }
      ],
      "name": "Transfer",
      "type": "event"
    },
    {
      "inputs": [],
      "name": "COMMENT_REWARD",
      "outputs": [
        {
          "internalType": "uint256",
          "name": "",
          "type": "uint256"
        }
      ],
      "stateMutability": "view",
      "type": "function"
    },
    {
      "inputs": [],
      "name": "CREATION_REWARD",
      "outputs": [
        {
          "internalType": "uint256",
          "name": "",
          "type": "uint256"
        }
      ],
      "stateMutability": "view",
      "type": "function"
    },
    {
      "inputs": [],
      "name": "LIKE_REWARD",
      "outputs": [
        {
          "internalType": "uint256",
          "name": "",
          "type": "uint256"
        }
      ],
      "stateMutability": "view",
      "type": "function"
    },
    {
      "inputs": [],
      "name": "SHARE_REWARD",
      "outputs": [
        {
          "internalType": "uint256",
          "name": "",
          "type": "uint256"
        }
      ],
      "stateMutability": "view",
      "type": "function"
    },
    {
      "inputs": [
        {
          "internalType": "address",
          "name": "owner",
          "type": "address"
        },
        {
          "internalType": "address",
          "name": "spender",
          "type": "address"
        }
      ],
      "name": "allowance",
      "outputs": [
        {
          "internalType": "uint256",
          "name": "",
          "type": "uint256"
        }
      ],
      "stateMutability": "view",
      "type": "function"
    },
    {
      "inputs": [
        {
          "internalType": "address",
          "name": "spender",
          "type": "address"
        },
        {
          "internalType": "uint256",
          "name": "value",
          "type": "uint256"
        }
      ],
      "name": "approve",
      "outputs": [
        {
          "internalType": "bool",
          "name": "",
          "type": "bool"
        }
      ],
      "stateMutability": "nonpayable",
      "type": "function"
    },
    {
      "inputs": [
        {
          "internalType": "address",
          "name": "account",
          "type": "address"
        }
      ],
      "name": "balanceOf",
      "outputs": [
        {
          "internalType": "uint256",
          "name": "",
          "type": "uint256"
        }
      ],
      "stateMutability": "view",
      "type": "function"
    },
    {
      "inputs": [
        {
          "internalType": "uint256",
          "name": "_memeId",
          "type": "uint256"
        }
      ],
      "name": "commentOnMeme",
      "outputs": [],
      "stateMutability": "nonpayable",
      "type": "function"
    },
    {
      "inputs": [
        {
          "internalType": "string",
          "name": "_ipfsHash",
          "type": "string"
        }
      ],
      "name": "createMeme",
      "outputs": [],
      "stateMutability": "nonpayable",
      "type": "function"
    },
    {
      "inputs": [
        {
          "internalType": "uint256",
          "name": "_memeId",
          "type": "uint256"
        }
      ],
      "name": "deactivateMeme",
      "outputs": [],
      "stateMutability": "nonpayable",
      "type": "function"
    },
    {
      "inputs": [],
      "name": "decimals",
      "outputs": [
        {
          "internalType": "uint8",
          "name": "",
          "type": "uint8"
        }
      ],
      "stateMutability": "view",
      "type": "function"
    },
    {
      "inputs": [
        {
          "internalType": "uint256",
          "name": "_memeId",
          "type": "uint256"
        }
      ],
      "name": "getMeme",
      "outputs": [
        {
          "components": [
            {
              "internalType": "uint256",
              "name": "id",
              "type": "uint256"
            },
            {
              "internalType": "address",
              "name": "creator",
              "type": "address"
            },
            {
              "internalType": "string",
              "name": "ipfsHash",
              "type": "string"
            },
            {
              "internalType": "uint256",
              "name": "likes",
              "type": "uint256"
            },
            {
              "internalType": "uint256",
              "name": "shares",
              "type": "uint256"
            },
            {
              "internalType": "uint256",
              "name": "comments",
              "type": "uint256"
            },
            {
              "internalType": "uint256",
              "name": "timestamp",
              "type": "uint256"
            },
            {
              "internalType": "bool",
              "name": "isActive",
              "type": "bool"
            }
          ],
          "internalType": "struct MEMEToken.Meme",
          "name": "",
          "type": "tuple"
        }
      ],
      "stateMutability": "view",
      "type": "function"
    },
    {
      "inputs": [],
      "name": "getTotalMemes",
      "outputs": [
        {
          "internalType": "uint256",
          "name": "",
          "type": "uint256"
        }
      ],
      "stateMutability": "view",
      "type": "function"
    },
    {
      "inputs": [
        {
          "internalType": "address",
          "name": "_user",
          "type": "address"
        }
      ],
      "name": "getUserMemes",
      "outputs": [
        {
          "internalType": "uint256[]",
          "name": "",
          "type": "uint256[]"
        }
      ],
      "stateMutability": "view",
      "type": "function"
    },
    {
      "inputs": [
        {
          "internalType": "uint256",
          "name": "",
          "type": "uint256"
        },
        {
          "internalType": "address",
          "name": "",
          "type": "address"
        }
      ],
      "name": "hasLiked",
      "outputs": [
        {
          "internalType": "bool",
          "name": "",
          "type": "bool"
        }
      ],
      "stateMutability": "view",
      "type": "function"
    },
    {
      "inputs": [
        {
          "internalType": "uint256",
          "name": "",
          "type": "uint256"
        },
        {
          "internalType": "address",
          "name": "",
          "type": "address"
        }
      ],
      "name": "hasShared",
      "outputs": [
        {
          "internalType": "bool",
          "name": "",
          "type": "bool"
        }
      ],
      "stateMutability": "view",
      "type": "function"
    },
    {
      "inputs": [
        {
          "internalType": "uint256",
          "name": "_memeId",
          "type": "uint256"
        }
      ],
      "name": "likeMeme",
      "outputs": [],
      "stateMutability": "nonpayable",
      "type": "function"
    },
    {
      "inputs": [
        {
          "internalType": "uint256",
          "name": "",
          "type": "uint256"
        }
      ],
      "name": "memes",
      "outputs": [
        {
          "internalType": "uint256",
          "name": "id",
          "type": "uint256"
        },
        {
          "internalType": "address",
          "name": "creator",
          "type": "address"
        },
        {
          "internalType": "string",
          "name": "ipfsHash",
          "type": "string"
        },
        {
          "internalType": "uint256",
          "name": "likes",
          "type": "uint256"
        },
        {
          "internalType": "uint256",
          "name": "shares",
          "type": "uint256"
        },
        {
          "internalType": "uint256",
          "name": "comments",
          "type": "uint256"
        },
        {
          "internalType": "uint256",
          "name": "timestamp",
          "type": "uint256"
        },
        {
          "internalType": "bool",
          "name": "isActive",
          "type": "bool"
        }
      ],
      "stateMutability": "view",
      "type": "function"
    },
    {
      "inputs": [],
      "name": "name",
      "outputs": [
        {
          "internalType": "string",
          "name": "",
          "type": "string"
        }
      ],
      "stateMutability": "view",
      "type": "function"
    },
    {
      "inputs": [],
      "name": "owner",
      "outputs": [
        {
          "internalType": "address",
          "name": "",
          "type": "address"
        }
      ],
      "stateMutability": "view",
      "type": "function"
    },
    {
      "inputs": [],
      "name": "renounceOwnership",
      "outputs": [],
      "stateMutability": "nonpayable",
      "type": "function"
    },
    {
      "inputs": [
        {
          "internalType": "uint256",
          "name": "_memeId",
          "type": "uint256"
        }
      ],
      "name": "shareMeme",
      "outputs": [],
      "stateMutability": "nonpayable",
      "type": "function"
    },
    {
      "inputs": [],
      "name": "symbol",
      "outputs": [
        {
          "internalType": "string",
          "name": "",
          "type": "string"
        }
      ],
      "stateMutability": "view",
      "type": "function"
    },
    {
      "inputs": [],
      "name": "totalSupply",
      "outputs": [
        {
          "internalType": "uint256",
          "name": "",
          "type": "uint256"
        }
      ],
      "stateMutability": "view",
      "type": "function"
    },
    {
      "inputs": [
        {
          "internalType": "address",
          "name": "to",
          "type": "address"
        },
        {
          "internalType": "uint256",
          "name": "value",
          "type": "uint256"
        }
      ],
      "name": "transfer",
      "outputs": [
        {
          "internalType": "bool",
          "name": "",
          "type": "bool"
        }
      ],
      "stateMutability": "nonpayable",
      "type": "function"
    },
    {
      "inputs": [
        {
          "internalType": "address",
          "name": "from",
          "type": "address"
        },
        {
          "internalType": "address",
          "name": "to",
          "type": "address"
        },
        {
          "internalType": "uint256",
          "name": "value",
          "type": "uint256"
        }
      ],
      "name": "transferFrom",
      "outputs": [
        {
          "internalType": "bool",
          "name": "",
          "type": "bool"
        }
      ],
      "stateMutability": "nonpayable",
      "type": "function"
    },
    {
      "inputs": [
        {
          "internalType": "address",
          "name": "newOwner",
          "type": "address"
        }
      ],
      "name": "transferOwnership",
      "outputs": [],
      "stateMutability": "nonpayable",
      "type": "function"
    },
    {
      "inputs": [
        {
          "internalType": "address",
          "name": "",
          "type": "address"
        },
        {
          "internalType": "uint256",
          "name": "",
          "type": "uint256"
        }
      ],
      "name": "userMemes",
      "outputs": [
        {
          "internalType": "uint256",
          "name": "",
          "type": "uint256"
        }
      ],
      "stateMutability": "view",
      "type": "function"
    }
  ],
  "bytecode": "0x60806040523480156200001157600080fd5b5060405162001e8138038062001e818339810160408190526200003491620002d0565b806040518060400160405280600f81526020016e26b2b6b2a1b430b4b7102a37b5b2b760891b815250604051806040016040528060048152602001634d454d4560e01b81525081600390816200008b9190620003a6565b5060046200009a8282620003a6565b5050506001600160a01b038116620000cd57604051631e4fbdf760e01b8152600060048201526024015b60405180910390fd5b620000d881620000fb565b506001600655620000f48169d3c21bcecceda10000006200014d565b506200049a565b600580546001600160a01b038381166001600160a01b0319831681179093556040519116919082907f8be0079c531659141344cd1fd0a4f28419497f9722a3daafe3b4186f6b6457e090600090a35050565b6001600160a01b038216620001795760405163ec442f0560e01b815260006004820152602401620000c4565b62000187600083836200018b565b5050565b620001988383836200019d565b505050565b6001600160a01b038316620001cc578060026000828254620001c0919062000472565b90915550620002409050565b6001600160a01b03831660009081526020819052604090205481811015620002215760405163391434e360e21b81526001600160a01b03851660048201526024810182905260448101839052606401620000c4565b6001600160a01b03841660009081526020819052604090209082900390555b6001600160a01b0382166200025e576002805482900390556200027d565b6001600160a01b03821660009081526020819052604090208054820190555b816001600160a01b0316836001600160a01b03167fddf252ad1be2c89b69c2b068fc378daa952ba7f163c4a11628f55a4df523b3ef83604051620002c391815260200190565b60405180910390a3505050565b600060208284031215620002e357600080fd5b81516001600160a01b0381168114620002fb57600080fd5b9392505050565b634e487b7160e01b600052604160045260246000fd5b600181811c908216806200032d57607f821691505b6020821081036200034e57634e487b7160e01b600052602260045260246000fd5b50919050565b601f8211156200019857600081815260208120601f850160051c810160208610156200037d5750805b601f850160051c820191505b818110156200039e5782815560010162000389565b505050505050565b81516001600160401b03811115620003c257620003c262000302565b620003da81620003d3845462000318565b8462000354565b602080601f831160018114620004125760008415620003f95750858301515b600019600386901b1c1916600185901b1785556200039e565b600085815260208120601f198616915b82811015620004435788860151825594840194600190910190840162000422565b5085821015620004625787850151600019600388901b60f8161c191681555b5050505050600190811b01905550565b808201808211156200049457634e487b7160e01b600052601160045260246000fd5b92915050565b6119d780620004aa6000396000f3fe608060405234801561001057600080fd5b50600436106101c35760003560e01c806370a08231116100f95780639c55a70f11610097578063dd62ed3e11610071578063dd62ed3e14610408578063e20645a614610441578063f0f8d4f114610449578063f2fde38b1461045857600080fd5b80639c55a70f146103c2578063a9059cbb146103d5578063d73ca5dc146103e857600080fd5b80638da5cb5b116100d35780638da5cb5b146103435780638fb7092c1461035e57806395d89b411461038c57806399c2c54b1461039457600080fd5b806370a08231146102ff578063715018a61461032857806383f6fa7d1461033057600080fd5b806322b8be9511610166578063313ce56711610140578063313ce5671461029a578063388f6064146102a95780633dea6b9a146102d05780636ee7b8bf146102f057600080fd5b806322b8be951461026157806323b872dd146102745780632f754b051461028757600080fd5b8063095ea7b3116101a2578063095ea7b31461020e5780630cf8e5141461023157806318160ddd14610246578063226e67b01461024e57600080fd5b80625ffc26146101c85780630560cb33146101ea57806306fdde03146101f9575b600080fd5b6101d76706f05b59d3b2000081565b6040519081526020015b60405180910390f35b6101d7674563918244f4000081565b61020161046b565b6040516101e191906114bd565b61022161021c3660046114f3565b6104fd565b60405190151581526020016101e1565b61024461023f366004611533565b610517565b005b6002546101d7565b61024461025c3660046115e4565b6106d9565b6101d761026f3660046114f3565b6108b5565b6102216102823660046115fd565b6108e6565b6102446102953660046115e4565b61090a565b604051601281526020016101e1565b6102bc6102b73660046115e4565b610a32565b6040516101e1989796959493929190611639565b6102e36102de3660046115e4565b610b09565b6040516101e19190611692565b6101d7671bc16d674ec8000081565b6101d761030d36600461170d565b6001600160a01b031660009081526020819052604090205490565b610244610c95565b61024461033e3660046115e4565b610ca9565b6005546040516001600160a01b0390911681526020016101e1565b61022161036c366004611728565b600a60209081526000928352604080842090915290825290205460ff1681565b610201610e01565b6102216103a2366004611728565b600b60209081526000928352604080842090915290825290205460ff1681565b6102446103d03660046115e4565b610e10565b6102216103e33660046114f3565b610feb565b6103fb6103f636600461170d565b610ff9565b6040516101e19190611754565b6101d7610416366004611798565b6001600160a01b03918216600090815260016020908152604080832093909416825291909152205490565b6007546101d7565b6101d7670de0b6b3a764000081565b61024461046636600461170d565b611065565b60606003805461047a906117c2565b80601f01602080910402602001604051908101604052809291908181526020018280546104a6906117c2565b80156104f35780601f106104c8576101008083540402835291602001916104f3565b820191906000526020600020905b8154815290600101906020018083116104d657829003601f168201915b5050505050905090565b60003361050b8185856110a0565b60019150505b92915050565b61051f6110b2565b60008151116105695760405162461bcd60e51b8152602060048201526011602482015270092dcecc2d8d2c84092a08ca640d0c2e6d607b1b60448201526064015b60405180910390fd5b6007805490600061057983611812565b909155505060408051610100810182526007548082523360208084019182528385018681526000606086018190526080860181905260a086018190524260c0870152600160e08701819052948152600890925294902083518155905191810180546001600160a01b0319166001600160a01b0390931692909217909155915190918291600282019061060b9082611879565b50606082015160038201556080820151600482015560a0820151600582015560c0820151600682015560e0909101516007918201805460ff191691151591909117905533600081815260096020908152604082209354845460018101865594835291209092019190915561068790674563918244f400006110dc565b336001600160a01b03166007547f28b5ad7895d69316af25befc2c78f3e1979604a4a8ffbbdd721ac031dc7e0c8c846040516106c391906114bd565b60405180910390a3506106d66001600655565b50565b6106e16110b2565b60075481111580156106f35750600081115b61070f5760405162461bcd60e51b815260040161056090611939565b60008181526008602052604090206007015460ff166107405760405162461bcd60e51b815260040161056090611962565b6000818152600b6020908152604080832033845290915290205460ff16156107aa5760405162461bcd60e51b815260206004820152601860248201527f416c7265616479207368617265642074686973206d656d6500000000000000006044820152606401610560565b600081815260086020526040902060010154336001600160a01b039091160361080d5760405162461bcd60e51b815260206004820152601560248201527443616e6e6f74207368617265206f776e206d656d6560581b6044820152606401610560565b600081815260086020526040812060040180549161082a83611812565b90915550506000818152600b602090815260408083203384528252808320805460ff191660019081179091558484526008909252909120015461087e906001600160a01b0316671bc16d674ec800006110dc565b604051339082907f4429e29c03db26d35907a4f63a38b1b663ca2da6816c2fffe30af8cec338cd1690600090a36106d66001600655565b600960205281600052604060002081815481106108d157600080fd5b90600052602060002001600091509150505481565b6000336108f4858285611116565b6108ff858585611194565b506001949350505050565b600754811115801561091c5750600081115b6109385760405162461bcd60e51b815260040161056090611939565b6000818152600860205260409020600101546001600160a01b031633148061097957503361096e6005546001600160a01b031690565b6001600160a01b0316145b6109b65760405162461bcd60e51b815260206004820152600e60248201526d139bdd08185d5d1a1bdc9a5e995960921b6044820152606401610560565b60008181526008602052604090206007015460ff16610a175760405162461bcd60e51b815260206004820152601860248201527f4d656d6520616c726561647920646561637469766174656400000000000000006044820152606401610560565b6000908152600860205260409020600701805460ff19169055565b60086020526000908152604090208054600182015460028301805492936001600160a01b0390921692610a64906117c2565b80601f0160208091040260200160405190810160405280929190818152602001828054610a90906117c2565b8015610add5780601f10610ab257610100808354040283529160200191610add565b820191906000526020600020905b815481529060010190602001808311610ac057829003601f168201915b505050600384015460048501546005860154600687015460079097015495969295919450925060ff1688565b610b5c6040518061010001604052806000815260200160006001600160a01b0316815260200160608152602001600081526020016000815260200160008152602001600081526020016000151581525090565b6007548211158015610b6e5750600082115b610b8a5760405162461bcd60e51b815260040161056090611939565b6000828152600860209081526040918290208251610100810184528154815260018201546001600160a01b0316928101929092526002810180549293919291840191610bd5906117c2565b80601f0160208091040260200160405190810160405280929190818152602001828054610c01906117c2565b8015610c4e5780601f10610c2357610100808354040283529160200191610c4e565b820191906000526020600020905b815481529060010190602001808311610c3157829003601f168201915b50505091835250506003820154602082015260048201546040820152600582015460608201526006820154608082015260079091015460ff16151560a09091015292915050565b610c9d6111f3565b610ca76000611220565b565b610cb16110b2565b6007548111158015610cc35750600081115b610cdf5760405162461bcd60e51b815260040161056090611939565b60008181526008602052604090206007015460ff16610d105760405162461bcd60e51b815260040161056090611962565b600081815260086020526040902060010154336001600160a01b0390911603610d7b5760405162461bcd60e51b815260206004820152601a60248201527f43616e6e6f7420636f6d6d656e74206f6e206f776e206d656d650000000000006044820152606401610560565b6000818152600860205260408120600501805491610d9883611812565b9091555050600081815260086020526040902060010154610dca906001600160a01b03166706f05b59d3b200006110dc565b604051339082907f5f56e492635248ff98f3f53703733004d5dbaecaa5794d8826054f9dd0bebc9990600090a36106d66001600655565b60606004805461047a906117c2565b610e186110b2565b6007548111158015610e2a5750600081115b610e465760405162461bcd60e51b815260040161056090611939565b60008181526008602052604090206007015460ff16610e775760405162461bcd60e51b815260040161056090611962565b6000818152600a6020908152604080832033845290915290205460ff1615610ee15760405162461bcd60e51b815260206004820152601760248201527f416c7265616479206c696b65642074686973206d656d650000000000000000006044820152606401610560565b600081815260086020526040902060010154336001600160a01b0390911603610f435760405162461bcd60e51b815260206004820152601460248201527343616e6e6f74206c696b65206f776e206d656d6560601b6044820152606401610560565b6000818152600860205260408120600301805491610f6083611812565b90915550506000818152600a602090815260408083203384528252808320805460ff1916600190811790915584845260089092529091200154610fb4906001600160a01b0316670de0b6b3a76400006110dc565b604051339082907ff8b927cfb2e75ff098dbf5a74342eb61f3048e1361979d572d4387e58579d41190600090a36106d66001600655565b60003361050b818585611194565b6001600160a01b03811660009081526009602090815260409182902080548351818402810184019094528084526060939283018282801561105957602002820191906000526020600020905b815481526020019060010190808311611045575b50505050509050919050565b61106d6111f3565b6001600160a01b03811661109757604051631e4fbdf760e01b815260006004820152602401610560565b6106d681611220565b6110ad8383836001611272565b505050565b6002600654036110d557604051633ee5aeb560e01b815260040160405180910390fd5b6002600655565b6001600160a01b0382166111065760405163ec442f0560e01b815260006004820152602401610560565b61111260008383611347565b5050565b6001600160a01b03838116600090815260016020908152604080832093861683529290522054600019811461118e578181101561117f57604051637dc7a0d960e11b81526001600160a01b03841660048201526024810182905260448101839052606401610560565b61118e84848484036000611272565b50505050565b6001600160a01b0383166111be57604051634b637e8f60e11b815260006004820152602401610560565b6001600160a01b0382166111e85760405163ec442f0560e01b815260006004820152602401610560565b6110ad838383611347565b6005546001600160a01b03163314610ca75760405163118cdaa760e01b8152336004820152602401610560565b600580546001600160a01b038381166001600160a01b0319831681179093556040519116919082907f8be0079c531659141344cd1fd0a4f28419497f9722a3daafe3b4186f6b6457e090600090a35050565b6001600160a01b03841661129c5760405163e602df0560e01b815260006004820152602401610560565b6001600160a01b0383166112c657604051634a1406b160e11b815260006004820152602401610560565b6001600160a01b038085166000908152600160209081526040808320938716835292905220829055801561118e57826001600160a01b0316846001600160a01b03167f8c5be1e5ebec7d5bd14f71427d1e84f3dd0314c0f7b2291e5b200ac8c7c3b9258460405161133991815260200190565b60405180910390a350505050565b6110ad8383836001600160a01b03831661137857806002600082825461136d919061198e565b909155506113ea9050565b6001600160a01b038316600090815260208190526040902054818110156113cb5760405163391434e360e21b81526001600160a01b03851660048201526024810182905260448101839052606401610560565b6001600160a01b03841660009081526020819052604090209082900390555b6001600160a01b03821661140657600280548290039055611425565b6001600160a01b03821660009081526020819052604090208054820190555b816001600160a01b0316836001600160a01b03167fddf252ad1be2c89b69c2b068fc378daa952ba7f163c4a11628f55a4df523b3ef8360405161146a91815260200190565b60405180910390a3505050565b6000815180845260005b8181101561149d57602081850181015186830182015201611481565b506000602082860101526020601f19601f83011685010191505092915050565b6020815260006114d06020830184611477565b9392505050565b80356001600160a01b03811681146114ee57600080fd5b919050565b6000806040838503121561150657600080fd5b61150f836114d7565b946020939093013593505050565b634e487b7160e01b600052604160045260246000fd5b60006020828403121561154557600080fd5b813567ffffffffffffffff8082111561155d57600080fd5b818401915084601f83011261157157600080fd5b8135818111156115835761158361151d565b604051601f8201601f19908116603f011681019083821181831017156115ab576115ab61151d565b816040528281528760208487010111156115c457600080fd5b826020860160208301376000928101602001929092525095945050505050565b6000602082840312156115f657600080fd5b5035919050565b60008060006060848603121561161257600080fd5b61161b846114d7565b9250611629602085016114d7565b9150604084013590509250925092565b8881526001600160a01b0388166020820152610100604082018190526000906116648382018a611477565b60608401989098525050608081019490945260a084019290925260c0830152151560e0909101529392505050565b602081528151602082015260018060a01b036020830151166040820152600060408301516101008060608501526116cd610120850183611477565b915060608501516080850152608085015160a085015260a085015160c085015260c085015160e085015260e0850151151581850152508091505092915050565b60006020828403121561171f57600080fd5b6114d0826114d7565b6000806040838503121561173b57600080fd5b8235915061174b602084016114d7565b90509250929050565b6020808252825182820181905260009190848201906040850190845b8181101561178c57835183529284019291840191600101611770565b50909695505050505050565b600080604083850312156117ab57600080fd5b6117b4836114d7565b915061174b602084016114d7565b600181811c908216806117d657607f821691505b6020821081036117f657634e487b7160e01b600052602260045260246000fd5b50919050565b634e487b7160e01b600052601160045260246000fd5b600060018201611824576118246117fc565b5060010190565b601f8211156110ad57600081815260208120601f850160051c810160208610156118525750805b601f850160051c820191505b818110156118715782815560010161185e565b505050505050565b815167ffffffffffffffff8111156118935761189361151d565b6118a7816118a184546117c2565b8461182b565b602080601f8311600181146118dc57600084156118c45750858301515b600019600386901b1c1916600185901b178555611871565b600085815260208120601f198616915b8281101561190b578886015182559484019460019091019084016118ec565b50858210156119295787850151600019600388901b60f8161c191681555b5050505050600190811b01905550565b6020808252600f908201526e125b9d985b1a59081b595b59481251608a1b604082015260600190565b6020808252601290820152714d656d65206973206e6f742061637469766560701b604082015260600190565b80820180821115610511576105116117fc56fea26469706673582212204579114253dcfa7574519460bda6c613e03d8c9cb516635752c48aa0302fb7d664736f6c63430008140033",
  "linkReferences": {},
  "deployedLinkReferences": {}
}